{
    "_format": "hh-sol-artifact-1",
    "contractName": "CertificateContract",
    "sourceName": "contracts/Certificate.sol",
    "abi": [
        {
            "anonymous": false,
            "inputs": [
                {
                    "indexed": false,
                    "internalType": "string",
                    "name": "userId",
                    "type": "string"
                },
                {
                    "indexed": false,
                    "internalType": "string",
                    "name": "courseId",
                    "type": "string"
                },
                {
                    "indexed": false,
                    "internalType": "uint256",
                    "name": "timestamp",
                    "type": "uint256"
                }
            ],
            "name": "ResultAdded",
            "type": "event"
        },
        {
            "inputs": [
                {
                    "internalType": "uint256",
                    "name": "",
                    "type": "uint256"
                }
            ],
            "name": "certificates",
            "outputs": [
                {
                    "internalType": "string",
                    "name": "userId",
                    "type": "string"
                },
                {
                    "internalType": "string",
                    "name": "courseId",
                    "type": "string"
                },
                {
                    "internalType": "uint256",
                    "name": "timestamp",
                    "type": "uint256"
                }
            ],
            "stateMutability": "view",
            "type": "function"
        },
        {
            "inputs": [
                {
                    "internalType": "string",
                    "name": "_userId",
                    "type": "string"
                },
                {
                    "internalType": "string",
                    "name": "_courseId",
                    "type": "string"
                }
            ],
            "name": "createCertificate",
            "outputs": [],
            "stateMutability": "nonpayable",
            "type": "function"
        },
        {
            "inputs": [
                {
                    "internalType": "string",
                    "name": "_userId",
                    "type": "string"
                },
                {
                    "internalType": "string",
                    "name": "_courseId",
                    "type": "string"
                }
            ],
            "name": "getResultByUserIdAndCourseId",
            "outputs": [
                {
                    "components": [
                        {
                            "internalType": "string",
                            "name": "userId",
                            "type": "string"
                        },
                        {
                            "internalType": "string",
                            "name": "courseId",
                            "type": "string"
                        },
                        {
                            "internalType": "uint256",
                            "name": "timestamp",
                            "type": "uint256"
                        }
                    ],
                    "internalType": "struct CertificateContract.Certificate",
                    "name": "",
                    "type": "tuple"
                }
            ],
            "stateMutability": "view",
            "type": "function"
        },
        {
            "inputs": [
                {
                    "internalType": "string",
                    "name": "_courseId",
                    "type": "string"
                }
            ],
            "name": "getResultsByCourseId",
            "outputs": [
                {
                    "components": [
                        {
                            "internalType": "string",
                            "name": "userId",
                            "type": "string"
                        },
                        {
                            "internalType": "string",
                            "name": "courseId",
                            "type": "string"
                        },
                        {
                            "internalType": "uint256",
                            "name": "timestamp",
                            "type": "uint256"
                        }
                    ],
                    "internalType": "struct CertificateContract.Certificate[]",
                    "name": "",
                    "type": "tuple[]"
                }
            ],
            "stateMutability": "view",
            "type": "function"
        },
        {
            "inputs": [
                {
                    "internalType": "string",
                    "name": "_userId",
                    "type": "string"
                }
            ],
            "name": "getResultsByUserId",
            "outputs": [
                {
                    "components": [
                        {
                            "internalType": "string",
                            "name": "userId",
                            "type": "string"
                        },
                        {
                            "internalType": "string",
                            "name": "courseId",
                            "type": "string"
                        },
                        {
                            "internalType": "uint256",
                            "name": "timestamp",
                            "type": "uint256"
                        }
                    ],
                    "internalType": "struct CertificateContract.Certificate[]",
                    "name": "",
                    "type": "tuple[]"
                }
            ],
            "stateMutability": "view",
            "type": "function"
        }
    ],
    "bytecode": "0x608060405234801561001057600080fd5b5061149e806100206000396000f3fe608060405234801561001057600080fd5b50600436106100575760003560e01c80630874c1641461005c57806317133c311461008c578063663b3e22146100bc57806391f7ac45146100ee578063f02c5a201461011e575b600080fd5b61007660048036038101906100719190610c59565b61013a565b6040516100839190610e53565b60405180910390f35b6100a660048036038101906100a19190610e75565b6103c3565b6040516100b39190610f44565b60405180910390f35b6100d660048036038101906100d19190610f92565b61056e565b6040516100e593929190611018565b60405180910390f35b61010860048036038101906101039190610c59565b6106b8565b6040516101159190610e53565b60405180910390f35b61013860048036038101906101339190610e75565b610941565b005b6060600060028360405161014e9190611099565b90815260200160405180910390208054806020026020016040519081016040528092919081815260200182805480156101a657602002820191906000526020600020905b815481526020019060010190808311610192575b505050505090506000815167ffffffffffffffff8111156101ca576101c9610b2e565b5b60405190808252806020026020018201604052801561020357816020015b6101f0610ade565b8152602001906001900390816101e85790505b50905060005b82518110156103b8576000838281518110610227576102266110b0565b5b6020026020010151815481106102405761023f6110b0565b5b90600052602060002090600302016040518060600160405290816000820180546102699061110e565b80601f01602080910402602001604051908101604052809291908181526020018280546102959061110e565b80156102e25780601f106102b7576101008083540402835291602001916102e2565b820191906000526020600020905b8154815290600101906020018083116102c557829003601f168201915b505050505081526020016001820180546102fb9061110e565b80601f01602080910402602001604051908101604052809291908181526020018280546103279061110e565b80156103745780601f1061034957610100808354040283529160200191610374565b820191906000526020600020905b81548152906001019060200180831161035757829003601f168201915b5050505050815260200160028201548152505082828151811061039a576103996110b0565b5b602002602001018190525080806103b09061116e565b915050610209565b508092505050919050565b6103cb610ade565b60006003846040516103dd9190611099565b9081526020016040518091039020836040516103f99190611099565b90815260200160405180910390205490506000818154811061041e5761041d6110b0565b5b90600052602060002090600302016040518060600160405290816000820180546104479061110e565b80601f01602080910402602001604051908101604052809291908181526020018280546104739061110e565b80156104c05780601f10610495576101008083540402835291602001916104c0565b820191906000526020600020905b8154815290600101906020018083116104a357829003601f168201915b505050505081526020016001820180546104d99061110e565b80601f01602080910402602001604051908101604052809291908181526020018280546105059061110e565b80156105525780601f1061052757610100808354040283529160200191610552565b820191906000526020600020905b81548152906001019060200180831161053557829003601f168201915b5050505050815260200160028201548152505091505092915050565b6000818154811061057e57600080fd5b90600052602060002090600302016000915090508060000180546105a19061110e565b80601f01602080910402602001604051908101604052809291908181526020018280546105cd9061110e565b801561061a5780601f106105ef5761010080835404028352916020019161061a565b820191906000526020600020905b8154815290600101906020018083116105fd57829003601f168201915b50505050509080600101805461062f9061110e565b80601f016020809104026020016040519081016040528092919081815260200182805461065b9061110e565b80156106a85780601f1061067d576101008083540402835291602001916106a8565b820191906000526020600020905b81548152906001019060200180831161068b57829003601f168201915b5050505050908060020154905083565b606060006001836040516106cc9190611099565b908152602001604051809103902080548060200260200160405190810160405280929190818152602001828054801561072457602002820191906000526020600020905b815481526020019060010190808311610710575b505050505090506000815167ffffffffffffffff81111561074857610747610b2e565b5b60405190808252806020026020018201604052801561078157816020015b61076e610ade565b8152602001906001900390816107665790505b50905060005b82518110156109365760008382815181106107a5576107a46110b0565b5b6020026020010151815481106107be576107bd6110b0565b5b90600052602060002090600302016040518060600160405290816000820180546107e79061110e565b80601f01602080910402602001604051908101604052809291908181526020018280546108139061110e565b80156108605780601f1061083557610100808354040283529160200191610860565b820191906000526020600020905b81548152906001019060200180831161084357829003601f168201915b505050505081526020016001820180546108799061110e565b80601f01602080910402602001604051908101604052809291908181526020018280546108a59061110e565b80156108f25780601f106108c7576101008083540402835291602001916108f2565b820191906000526020600020905b8154815290600101906020018083116108d557829003601f168201915b50505050508152602001600282015481525050828281518110610918576109176110b0565b5b6020026020010181905250808061092e9061116e565b915050610787565b508092505050919050565b60006040518060600160405280848152602001838152602001428152509080600181540180825580915050600190039060005260206000209060030201600090919091909150600082015181600001908161099c9190611362565b5060208201518160010190816109b29190611362565b50604082015181600201555050600060016000805490506109d39190611434565b90506001836040516109e59190611099565b9081526020016040518091039020819080600181540180825580915050600190039060005260206000200160009091909190915055600282604051610a2a9190611099565b908152602001604051809103902081908060018154018082558091505060019003906000526020600020016000909190919091505580600384604051610a709190611099565b908152602001604051809103902083604051610a8c9190611099565b9081526020016040518091039020819055507f319d556a9b20a224f942b9a4a8736cf067d925c6fed7db8935e9c87220edc8b0838342604051610ad193929190611018565b60405180910390a1505050565b60405180606001604052806060815260200160608152602001600081525090565b6000604051905090565b600080fd5b600080fd5b600080fd5b600080fd5b6000601f19601f8301169050919050565b7f4e487b7100000000000000000000000000000000000000000000000000000000600052604160045260246000fd5b610b6682610b1d565b810181811067ffffffffffffffff82111715610b8557610b84610b2e565b5b80604052505050565b6000610b98610aff565b9050610ba48282610b5d565b919050565b600067ffffffffffffffff821115610bc457610bc3610b2e565b5b610bcd82610b1d565b9050602081019050919050565b82818337600083830152505050565b6000610bfc610bf784610ba9565b610b8e565b905082815260208101848484011115610c1857610c17610b18565b5b610c23848285610bda565b509392505050565b600082601f830112610c4057610c3f610b13565b5b8135610c50848260208601610be9565b91505092915050565b600060208284031215610c6f57610c6e610b09565b5b600082013567ffffffffffffffff811115610c8d57610c8c610b0e565b5b610c9984828501610c2b565b91505092915050565b600081519050919050565b600082825260208201905092915050565b6000819050602082019050919050565b600081519050919050565b600082825260208201905092915050565b60005b83811015610d08578082015181840152602081019050610ced565b60008484015250505050565b6000610d1f82610cce565b610d298185610cd9565b9350610d39818560208601610cea565b610d4281610b1d565b840191505092915050565b6000819050919050565b610d6081610d4d565b82525050565b60006060830160008301518482036000860152610d838282610d14565b91505060208301518482036020860152610d9d8282610d14565b9150506040830151610db26040860182610d57565b508091505092915050565b6000610dc98383610d66565b905092915050565b6000602082019050919050565b6000610de982610ca2565b610df38185610cad565b935083602082028501610e0585610cbe565b8060005b85811015610e415784840389528151610e228582610dbd565b9450610e2d83610dd1565b925060208a01995050600181019050610e09565b50829750879550505050505092915050565b60006020820190508181036000830152610e6d8184610dde565b905092915050565b60008060408385031215610e8c57610e8b610b09565b5b600083013567ffffffffffffffff811115610eaa57610ea9610b0e565b5b610eb685828601610c2b565b925050602083013567ffffffffffffffff811115610ed757610ed6610b0e565b5b610ee385828601610c2b565b9150509250929050565b60006060830160008301518482036000860152610f0a8282610d14565b91505060208301518482036020860152610f248282610d14565b9150506040830151610f396040860182610d57565b508091505092915050565b60006020820190508181036000830152610f5e8184610eed565b905092915050565b610f6f81610d4d565b8114610f7a57600080fd5b50565b600081359050610f8c81610f66565b92915050565b600060208284031215610fa857610fa7610b09565b5b6000610fb684828501610f7d565b91505092915050565b600082825260208201905092915050565b6000610fdb82610cce565b610fe58185610fbf565b9350610ff5818560208601610cea565b610ffe81610b1d565b840191505092915050565b61101281610d4d565b82525050565b600060608201905081810360008301526110328186610fd0565b905081810360208301526110468185610fd0565b90506110556040830184611009565b949350505050565b600081905092915050565b600061107382610cce565b61107d818561105d565b935061108d818560208601610cea565b80840191505092915050565b60006110a58284611068565b915081905092915050565b7f4e487b7100000000000000000000000000000000000000000000000000000000600052603260045260246000fd5b7f4e487b7100000000000000000000000000000000000000000000000000000000600052602260045260246000fd5b6000600282049050600182168061112657607f821691505b602082108103611139576111386110df565b5b50919050565b7f4e487b7100000000000000000000000000000000000000000000000000000000600052601160045260246000fd5b600061117982610d4d565b91507fffffffffffffffffffffffffffffffffffffffffffffffffffffffffffffffff82036111ab576111aa61113f565b5b600182019050919050565b60008190508160005260206000209050919050565b60006020601f8301049050919050565b600082821b905092915050565b6000600883026112187fffffffffffffffffffffffffffffffffffffffffffffffffffffffffffffffff826111db565b61122286836111db565b95508019841693508086168417925050509392505050565b6000819050919050565b600061125f61125a61125584610d4d565b61123a565b610d4d565b9050919050565b6000819050919050565b61127983611244565b61128d61128582611266565b8484546111e8565b825550505050565b600090565b6112a2611295565b6112ad818484611270565b505050565b5b818110156112d1576112c660008261129a565b6001810190506112b3565b5050565b601f821115611316576112e7816111b6565b6112f0846111cb565b810160208510156112ff578190505b61131361130b856111cb565b8301826112b2565b50505b505050565b600082821c905092915050565b60006113396000198460080261131b565b1980831691505092915050565b60006113528383611328565b9150826002028217905092915050565b61136b82610cce565b67ffffffffffffffff81111561138457611383610b2e565b5b61138e825461110e565b6113998282856112d5565b600060209050601f8311600181146113cc57600084156113ba578287015190505b6113c48582611346565b86555061142c565b601f1984166113da866111b6565b60005b82811015611402578489015182556001820191506020850194506020810190506113dd565b8683101561141f578489015161141b601f891682611328565b8355505b6001600288020188555050505b505050505050565b600061143f82610d4d565b915061144a83610d4d565b92508282039050818111156114625761146161113f565b5b9291505056fea2646970667358221220d6209eaa538312407cde8616141532c96d0dac1392c07798d4b01d6b71233e7564736f6c63430008130033",
    "linkReferences": {},
    "deployedLinkReferences": {}
}